:1000000010000000005000004D450A59010000009A
:10001000001800201D030000DD020000E1020000C6
:10002000E5020000E9020000ED020000000000000F
:10003000000000000000000000000000F1020000CD
:10004000F502000000000000F9020000FD020000BF
:10005000D50000009D01000021010000C10000004A
:10006000D90100000102000019030000190300007B
:100070001903000019030000190300001903000010
:100080001903000019030000190300001903000000
:1000900019030000190300001903000019030000F0
:1000A00019030000190300001903000019030000E0
:1000B00019030000190300001903000019030000D0
:1000C00019030000190300001903000019030000C0
:1000D000034A002313708022D20513707047C04674
:1000E0000000002000B50F4A002353708023DB0579
:1000F000D86B0D490140D963D86B0C490140D963D5
:10010000917800290CD05168DA6B0902120E090AA5
:1001100012060A43DA63D96B802252040A43DA6377
:1001200000BDC04600000020FFFFFFFEFFFFFFEF05
:1001300010B5A022D20594686407640FE3B2022BC5
:100140000AD0042B14D0012B16D1144B00211960B6
:10015000127B134B1A800FE0124B1B7A022B03D138
:100160000E4B1A6808321A600F4B1B68984703E061
:100170000A4B1A6808321A600A4B01211C72A0232C
:10018000DB051A680A431A60C046C046C046C0462E
:100190001A6810210A431A6010BDC04620000020D2
:1001A0001C000020000000201000002010B5A0233B
:1001B000DB051A6801210A431A601A6810210A43F4
:1001C0001A60064B1B689847054C237A022B02D114
:1001D000044B1B6898470023237210BD14000020B5
:1001E000000000200C000020064B00225A728023E1
:1001F000DB051968044A0A401A601968034A0A4074
:100200001A60704700000020FFFFF0FFFFFF0FFFA4
:100210007047C0467047064B01221A708023DB05E9
:100220000021597019680F2081430A431A607047F2
:1002300000000020064B01221A708023DB0519689C
:10024000044A0A40802149020A431A607047C046A6
:1002500009000020FFFFF0FF00B5064B72B61A78C8
:10026000002A04D0C046C04662B630BFF6E762B688
:1002700000BDC04609000020054B01221A708023F2
:10028000DB05D96B802252040A43DA637047C0460B
:100290000100002000B5054B72B61A78002A03D081
:1002A000C046C04662B6F7E762B600BD0000002057
:1002B00000B50B4B0B4A72B61978002902D11178A0
:1002C000002904D0C046C04662B630BFF3E762B62C
:1002D000054A1278002A01D001221A7000BDC046DA
:1002E00001000020000000200200002000B5FEE711
:1002F00000B5FEE700B5FEE700B5FEE700B5FEE796
:1003000000B5FEE700B5FEE700B5FEE700B5FEE785
:1003100000B5FEE700B5FEE700B5FEE700B5FEE775
:1003200000B5FEE700B5FEE700B5FEE708B5FF2320
:1003300000221B041A60BFF36F8F00F06DF808BD38
:10034000FFFFFFFFFFFFFFFFFFFFFFFFFFFFFFFFBD
:10035000FFFFFFFFFFFFFFFFFFFFFFFFFFFFFFFFAD
:10036000FFFFFFFFFFFFFFFFFFFFFFFFFFFFFFFF9D
:10037000FFFFFFFFFFFFFFFFFFFFFFFFFFFFFFFF8D
:10038000FFFFFFFFFFFFFFFFFFFFFFFFFFFFFFFF7D
:10039000FFFFFFFFFFFFFFFFFFFFFFFFFFFFFFFF6D
:1003A000FFFFFFFFFFFFFFFFFFFFFFFFFFFFFFFF5D
:1003B000FFFFFFFFFFFFFFFFFFFFFFFFFFFFFFFF4D
:1003C000FFFFFFFFFFFFFFFFFFFFFFFFFFFFFFFF3D
:1003D000FFFFFFFFFFFFFFFFFFFFFFFFFFFFFFFF2D
:1003E000FFFFFFFFFFFFFFFFFFFFFFFFFFFFFFFF1D
:1003F000FFFFFFFFFFFFFFFFFFFFFFFFFFFFFFFF0D
:10040000FFFFFFFFFFFFFFFFFFFFFFFFFFFFFF01FA
:100410004D314830434F3434F8B58023DB059968BB
:10042000802292000A439A6099688022D2000A438F
:100430009A609968802212010A439A6002F0E6FDF0
:1004400000F0E6FC00F0FEFC994BAA221870994BD4
:100450001A7003F0D7FA002003F0DEFD002002F04E
:100460006BFA954B954F0833DB7F5A42534110226C
:10047000D21A934B1A703B78002B1DD1914A01245C
:1004800013703C7000F09CFA8F4B201C9A785A70C5
:1004900003F0C2FD02F0AEFC00F090FD8023DB050E
:1004A000596B8A4A0A405A6300F0E2FA02F091F965
:1004B00000F084FD00F04CFD824B1B78002B1CD01B
:1004C000834C2378002B18D0824B13201B6898474D
:1004D00000F076FA02F05AFD02F028FC002000F04D
:1004E0008BFB00F0CFFA7C4A012313707B4A138008
:1004F00002F098F92378002BFCD100F0B3FC704B8C
:100500001A781E7873B20F2B29D005DC002B50D03F
:100510000D2B00D0C8E03CE0112B33D003DB132BB4
:1005200000D0C1E0BEE0674B00221A706C4B1B7814
:10053000934200D0B8E06B4B1A78101C012A0ED100
:1005400069490B78002B0AD1684C0A7023706849FE
:10055000684C0B702370684B1A7000F095FC5A4B76
:10056000587802F0FFFC544DE87B02F0C9F9634C67
:100570006060287C02F0C4F91123A060EB56EA7B8E
:100580005343E3604F4B00221A705D4B187800F024
:1005900033FB4C4B00241C705A4B03221C705A4BEB
:1005A0001A7000F065FA02F057FD00F061FA444B52
:1005B0001C70444B01221A7000F012FAFFF75CFE27
:1005C000FFF729FE01205149404203F0A9F8414CB0
:1005D00006202368984702F0B3FD02F0C3FD00F047
:1005E000D9F823680720984703F0DEF8484B1B78BA
:1005F000002B1BD100F000FD236808209847FFF76F
:1006000019FEFFF729FE00F08FFD01F05DFB01F000
:10061000A1FB2368122098473E4B1B78002B01D189
:1006200001F050FD2B4B0D201B68984700F0ECF8B3
:10063000374B1B78002B29D101F0C2FC01F0B5FD2E
:10064000354B304A1B68002B01DD012111701278F7
:10065000002A12D0314A1278002A0ED1002B0CDC6D
:100660002F4B1B68002B08DC274B1A7852B2002A4C
:1006700003DB1A78013AD2B21A70164B0F201B68AE
:100680009847284B1B68984701F090FF8023012270
:10069000DB055A70FFF70CFE174B0020185600F0D0
:1006A000F3FB01E000F0E4F91F4B1E70E3E6C046E7
:1006B0001604002017040020520C00202304002000
:1006C0009407002024040020400D0020FFC0FFFFFD
:1006D0002004002034060020A30700208807002003
:1006E0001D0400203300002015040020F303002027
:1006F0000C04002014040020F2030020C00000209D
:100700007610002019040020320000204013002041
:10071000481300201A04002098020020180400202A
:100720006C010020180000203100002008B501F005
:10073000C3FC124B1B68984711490E230022013B52
:10074000DBB2181C1430400008188280002BF6D150
:100750000C490A22013AD2B28B54002AFAD10A4B30
:100760000A491B7802E0013BDBB2CA54002BFAD1E4
:10077000034A1360064A136008BDC04618000020F3
:100780002C010020681000200C0C0020E10B002040
:10079000D000002010B5144B1B78002B23D0134C35
:1007A00000232370124B04201B6898472378114CB8
:1007B000002B03D1104B1B78002B13D00F4A0123C1
:1007C00013702268022A03DCD21822600C4A07E068
:1007D000FFF7ACFF0B4B0D221A700023064A236073
:1007E000137000E0236010BD8E0700204713002027
:1007F00034060020D8030020D50300204813002031
:10080000E00B00209407002038B55B490023052247
:10081000013AD2B2101C0E30C00008180424005F48
:10082000002800D00123002AF2D1544A54491278FA
:1008300007E0013AD2B2101D4000405E002800D00F
:100840000123002AF5D14F49002B04D10A684E48F4
:10085000824201D001320A604C4900220A70934260
:1008600050D1474A1268002A4CD149480278041CEA
:10087000012A0AD147480578002D06D1464C02705E
:100880002370464C0A70237015E0454B1B680E2BF5
:1008900011DD2378012B0ED0424A13680133136017
:1008A000022B08DD002313603C4A1370394A137091
:1008B000364B02221A703C4B00221A70384B1A60D9
:1008C0003A4B1968914208DD01391960012951D16B
:1008D0001A602E4B03221A704CE0354A35494E32CD
:1008E00012888A4246D034490968914242DB334A31
:1008F0002448111C34310978006888423ADB3532CB
:10090000127815E0294A00231360224A11782B4AF5
:10091000994216D0118E284A1068234A884209DA73
:100920001378002B26D11E4B1A680E2A22DC0132C6
:100930001A601FE001211170194A1360194A1360EF
:1009400018E0138D154A1178002906D119498B42F8
:1009500010D01949096899420CDB0F4900230B702C
:100960000C49137001220A700F490B70074B1A7063
:1009700001F0A2FB38BDC046980200200C0C0020FC
:10098000E800002000040020FFFFFF7FF2030020AA
:100990003300002015040020F3030020140400207D
:1009A00010040020080400200C040020040400208F
:1009B00076100020FFFF000040130020520C0020A2
:1009C00010B503F049F8054C00202368984703F060
:1009D00093F823680120984710BDC04634060020D4
:1009E00010B51C4B19781C4B4AB21C78002C22D035
:1009F0001A4B00241B78A3421DD1194BA14207D0EA
:100A000018490978A14203D117490968A14203D0C6
:100A10000021196001240EE014491868C968884251
:100A200001DA01301860022A10D00D4B02241B6835
:100A30008B4203DA0AE063B2934207D00B4A63B2F7
:100A40009B00D05801F08CFF024B1C7001F07AFF24
:100A500010BDC046280000208E0700201F04002083
:100A60004800002026040020E8000020C0000020EC
:100A700008B5FFF7D0FB80230122DB055A70FFF792
:100A800009FC08BDF0B587B00024FFF7F1FF504D19
:100A90000C21E8794F4A50E016264E434F1C7D004A
:100AA0001423039604970595013BDBB2002C1DD05F
:100AB000039E494FF5186D00EE5F049F5D1C2D01EC
:100AC000ED196D00575BAD5A0741F71B0541002F2B
:100AD00001DB751B00E0AD1B039E6D10F7183F4E48
:100AE000BE5DB54200DA351C3C4EBD55049F5D1C11
:100AF0002D01ED196D00565B039D0641ED18B6B250
:100B00000196354F6E00029600956D46BC46AF8843
:100B1000029D6646AF53002C03D1304D009E7455A4
:100B200009E0632C07D1059DAF5A019D07417E1B4B
:100B30002B4F029DEE53002BB6D10139C9B2FF29CC
:100B4000AAD1234A274BD1791B78224A36E0013BB0
:100B5000254EDBB2F75C002C1BD024487E1C3601EE
:100B60009D002D58B446581C039060444000165A0E
:100B7000805A0E41AE1B0841002E01DB281A00E00E
:100B8000401B1B4E4010F55CA84200DA281C184D93
:100B9000E85401375D1C3F017F197F00D05B134F84
:100BA00008419E00F051002C08D1114F6D00FC54FB
:100BB000AD5A5F000D41281A0E4D7853002BC6D157
:100BC0000134E4B2642C00D05FE707B0F0BDC0464A
:100BD0007610002000080040DE100020480D0020A4
:100BE000580E00200C0C00201E4D00005006002066
:100BF0003E0D002072100020F0B58FB0764D0490AD
:100C0000A9798023DB057F221140744C9A6B090679
:100C100022400A439A638422D2007148002103F0E3
:100C2000A9F8049E6F4A002E08D02B7B528858B238
:100C300011B2884211DB531EDBB20EE00223D35601
:100C40005B005B421F1C083701DA08235B42DBB202
:100C5000002605930296022304E05A42D2B2029380
:100C600005920123029F00265BB20197039607932A
:100C70006CE00024201C291C079A013401F079FF44
:100C8000142CF7D1201C291C079A01F0E9FFFFF76B
:100C9000EFFE554B0F271B786E4609934E4B534D75
:100CA000DF5753480A97DB7908270B93BB57039EFE
:100CB000504C9B1B50490C220D933DE01E1C01E043
:100CC00015260092049F731E002F0DD0099A002A4A
:100CD00001D0CA5601E0CF567A100A9FD2190D9F53
:100CE000D219D71D0E2F20D8009A3601B618434FBF
:100CF0007600F65B0B9A424F16419A00BE1B87584E
:100D00000692B74211DC3F4ABF1B974200DA171C1C
:100D10005A000C923C4A974200DD171C0C9AAF52C5
:100D20006A46069F1279C651E254002BC6D1089A32
:100D30002C3D5838163C1839531E0893C0D2019BDD
:100D4000039E013BDBB20136019303966F460425F7
:100D500014227D57D3579D428BDA049E002E0AD071
:100D6000214B244A1D781C4B284FD87BDC7A224922
:100D7000D619241812E0002413E01523013BD75C98
:100D8000002D01D0C85C02E0C8564010C0B23F1927
:100D9000C019D054002BF1D1163A1839B242ECD117
:100DA000E9E70021201C0A1C013401F0E2FE142CAA
:100DB000F7D10021201C0A1C01F052FF064B7F22B4
:100DC0009C798023DB05224004499C6B12060C4071
:100DD00014430FB09C63F0BD76100020FFFFFF802E
:100DE000A4070020400600206C000020C212002052
:100DF0006C0B00203A0E00202A4E00000008004034
:100E0000FFFF00000080FFFFFF7F0000F8FEFFFFF4
:100E100070B580232B250A4C5B006D42013BDAB292
:100E2000092106E056B25000C2B2002E01DA684035
:100E3000C2B201390029F5D1E254002BEED170BDC8
:100E40002804002010B50020A0220549031CD2016F
:100E50001C7801336040085C9342F9D110BDC04654
:100E60002804002008B5064B1B68002B06D0054B54
:100E70001B78002B02D101F0D5FCFEE708BDC0466F
:100E80000C1600202504002010B5041E27DD022CBE
:100E900002DD032C23D132E0FFF748FC2048022C6E
:100EA00004D120495C2202F027FF0BE01E495C229E
:100EB00002F022FF1D4B1B78012B03D01C4B0B2093
:100EC0001B689847FFF77CFD1A4B36331A781A4B8C
:100ED0001A701B78102B22D101F028FF1FE0174B4E
:100EE0001A78002A05D0164A1168013111600022D3
:100EF0001A70144B1A68132A04DD00221A6010229B
:100F00000D4B0BE00E4B1A683B2A08DD00221A60DD
:100F10000D4B01201B6898470C4B01221A7010BD25
:100F200076100020404C00009C4C00003300002054
:100F300034060020520C002094070020FC030020FF
:100F4000F8030020F40300206400002021040020A6
:100F500010B5164B00221A60154B012252425A60FE
:100F6000144B154C187E0138421E9041011C123161
:100F700021605A7E4042013A531E9A41131C0B33A2
:100F800063601523034023815242142313409620AB
:100F900063814900000102F04DFEF0235B006361B4
:100FA000C8239B00E0602061A36110BD980200206F
:100FB000D0000020520C0020EC0B002010B50C4992
:100FC0000D230022A024580064004252181940004A
:100FD00042520748013BF5D213230022591E06D383
:100FE000044C5B01C2521B191A800B1CF6E710BDA2
:100FF000000800401A08004000B5144B14491B7843
:10100000144A002B02D01C23D3560CE0124B0E20A6
:101010001B5E101C41300078127F434352B29B117B
:10102000934200DA131C0B60094B1A688023DB051E
:10103000196B12050903090B11431963186B110B86
:10104000064A02400A431A6300BDC0461504002048
:10105000540E002076100020B4030020FF00F0FFA3
:1010600030B5304D039C2D78002D55D1002A04D188
:101070008C2252426243D21106E0012A06D1192283
:1010800052426243D211A21802601CE0022A03D12C
:1010900006226500624306E0092A07D1A200E500A6
:1010A000A21A2D195200D211AA18EDE7151C65439A
:1010B0000A2A01D1192202E00B2A03D18C226243B1
:1010C000D211AD180560002B04D1C8235B425C43EC
:1010D000E41124E0012B03D1A3001B19DB110FE065
:1010E000022B01D164001AE0102B01D1240116E07B
:1010F000112B07D1A200230152421B19141BE4112A
:101100001C190CE01A1C6243122B03D1C8235C4348
:10111000E41112190A6003E062435C4302600C6050
:1011200030BDC0461C040020F0B5842291B00021DF
:101130005200B94802F01EFEB84C8E220021201C3D
:10114000520002F017FE0E237F20FF21013BDBB28D
:101150001A1C38329200A21890711071D17151711D
:10116000002BF3D1AE4A1383AE4B9A680A2A01DCF6
:1011700001329A60DA68002A01DD013ADA601A6801
:10118000112A01DC01321A605A68002A01DD013A95
:101190005A60A44B00249D6818236B4305940A935E
:1011A00067E11C685CE1631C691C9F4A1B015B18BA
:1011B000995C9E4A4E1EF6B20D2E5DD80A9F9C4841
:1011C0005B003818059FC01900194176D35A68464C
:1011D00003829FB2924B0DA81A8B0EA901321A837B
:1011E0002A1C231C0097FFF73BFF8C4BB2009A1878
:1011F00050680D9941185160321C0E3291005918F7
:101200004868D20084460E989A18604448609188D5
:10121000042079189180518901315181321C383272
:10122000910059180856854200DA0D7192009A18FB
:10123000052151568D4200DD5571311C38318A002F
:101240009B1806229A56944200DA9C71734A8B00CE
:10125000D318072159568C4200DDDC710E36F6009A
:1012600092190621535EBB4200DBF8E06B461B8AF5
:101270005472D3801572F2E05B00D35A0493002BB2
:1012800000D1ECE06B4F00230F930826BC460FAA59
:10129000013EF6B26046684F815DBB5D091949B2F7
:1012A0005B1901315BB209015F480133CB18C15CA6
:1012B0000023C8B2471E0D2F03D909E00133DBB26A
:1012C00000E040B2D75C002F01D08742F6D1D15464
:1012D000002EDDD1331C0FAA9A5CDFB2002A04D0A5
:1012E0000133042BF7D11F1C02E0002F00D1B6E020
:1012F0000A994F4B059ACB189B183A1C1B190F32B1
:101300005A76049B2A1C00930DA8231C0EA9FFF7F4
:10131000A7FE391C0D9802F08DFC391C07900E9821
:1013200002F088FC391C0890049802F083FC7B1EB4
:101330004142002209930B910692384B03901EE024
:10134000925D0136013A52B29100591848680E3246
:1013500084460798F6B28444604648609100591864
:101360004868D200844608989A18844460464860C9
:101370009188039841189180518901315181069AD1
:10138000049811180B981218099806920FAA864211
:10139000D6DB0491905D013840B286009E197168D9
:1013A0000E308C4607998C446146716086009E1908
:1013B0007168C0008C4608991B188C4461467160A6
:1013C0009888049EA4463118998059890131598121
:1013D000012100233FE03C20C0186E46845D601E62
:1013E000049CC0B20690A05C461E0698F6B2B042BD
:1013F00006D216244443A619074C0120A05508E044
:1014000016204643069C044836190696069C01267B
:101410000655013218E0C046280500205C06002071
:10142000B4030020F012002000020040000400403D
:1014300049130020343E00003C3E00004CB20FAE89
:101440003619002204960794079C1019B842C2DB93
:1014500001310133C9B2099EB342EFDB6446013C5E
:101460003B4B5B689C4200DB9DE6059F013D183FBE
:101470000597374BDA68954200DB92E6354F002539
:101480006B00DB1974331E88002E2FD0EC196068B6
:1014900036B2311CC00102F0CDFB6060E06B311C44
:1014A000C00102F0C7FB231CE063E5331A7851B298
:1014B0000A2901DC01321A70231CE4331A7851B274
:1014C000002901DD013A1A70231CE7331A7851B262
:1014D000112901DC01321A70E63423785AB2002A4D
:1014E00001DD013B23700435382DC9D11A4B1B484F
:1014F0001A781B4B191C37331E7836310F78036866
:10150000B4461EE0013AD2B2164C5100615A0EB2F6
:10151000F643F6170E40111D4900B5B20E52002DCC
:101520000FD0114E2DB28E5F002E04DCBD4207DAC3
:1015300000250D5205E0654502DA00260E5200E056
:101540000133002ADED1054A11B01360F0BDC04658
:10155000F01200205C0600200C0C0020E8000020A7
:101560007610002072100020DC000020F0B5A64CA0
:10157000431C8FB0DBB20A932368071C0E37013B74
:101580002360FB00E318039202930897051C0420D4
:101590001F5E0E1C05970F1C0E37FB00E31804930B
:1015A000099704201F5E05980697C71907978B00B7
:1015B000AF00E719E3187868059A5B68069950430D
:1015C0004B430799181802F035FB00B27860089B6E
:1015D00009989F008300E719E3187868059A5B680B
:1015E000069950434B430799181802F023FB00B2A9
:1015F0007860281C383080002018039904220430B9
:1016000002F07AFB049FFB88029F1AB20621795EE2
:10161000914209DA029FFB80049F7B7A029F7B72D2
:10162000049F3B7A029F3B722A1C331C0E320E33FE
:10163000D200DB00E318A4189988A2888A18A28037
:10164000598962898A18F1B2481C40B2029016206A
:1016500068436281029C002220189A800490131C27
:1016600006910EE0162474430499A4467818029952
:101670008C446744C15CFC5C2143C1540020F85495
:1016800001330132069CD2B2101940B25F4F0D28CF
:10169000E8DD16206843BA190023C71911E0AB42F0
:1016A00005DA911B4C5D10782043485505E0AB42AC
:1016B00003DD1078F95C0143F95400211170013306
:1016C0001632B342EBDB039F68463F781021049744
:1016D00008561827079047430022AC465EE0039C5B
:1016E0000020A1784A4C4DB27B191B1908950D9327
:1016F0004CE0089B0D9CC31824180993637E079D3A
:10170000013B5519DBB20B95029405936D461424E9
:1017100063570F2B37DD0023012506936D42082305
:101720000092013B3B4CDBB2E4563B4A0C94D25650
:101730000B9CA418013418226243354CA418099A52
:10174000A2180C9C019214190C946478013CE4B228
:101750000D2C0DD864B2644501D0B44208D16A1C86
:1017600002D0A54202D103E0251C01E00124069429
:10177000002BD6D1069D009A002D04D06B46142470
:10178000E45C029B5C760131C9B20130039D032405
:101790002C574BB29C42ACDA013218370498039CA8
:1017A0000121131861565BB2994298DA2378002020
:1017B0005DB201351824AC461EE0039D67463A1819
:1017C000A97862434DB20135AA18114D52190AE0A9
:1017D0001578013D6DB2B54202D10AAF3F7817705E
:1017E0000131C9B20132039D0327EF574DB2AF4219
:1017F000EEDA0133DBB20130039F012179565AB290
:101800009142DADA0FB0F0BD5C0600202805002016
:1018100049130020343E00003C3E000010B50B7818
:10182000002404575AB2944200DD03704B7801241F
:1018300004575AB2944200DA43708B78022404575A
:101840005AB2944200DD8370CB78032141565AB2DC
:10185000914200DAC37010BDF0B58BB00024231C98
:101860000E333C48DB00C31804215A5E002A6BD0BB
:101870005A7A02921B7A18221F1C013F7A43039363
:10188000354BD3180193029B013318010593079040
:1018900055E0029E013E4BE00198192583195D57E2
:1018A0007A1C013D711C0D2D41D8AC423FD009017D
:1018B00088182A4B00914000C05A0690201C0E3018
:1018C000C1002448844661440620095E2448408DB6
:1018D0008446069881422ADC60464143881100997B
:1018E0008C4604998C4461464900C95A88421EDAE4
:1018F00007998A185200D35A984218DAA54202DA98
:10190000231C2C1C1D1C2A1C124B3832211C92003B
:1019100038319A1889005268C918043109A8099207
:10192000FFF77CFF201C291C09AAFFF71FFE0236C7
:10193000059A9642B0DD019B02373033019303983C
:10194000013004908742A4DD01340D2C87DD0BB0FB
:10195000F0BDC0465C060020491300200004004092
:1019600076100020F0B5CC4B9FB01A68CB4B012A03
:1019700009D1CB4A1268012A05DD9E8C0C96DE8CBB
:1019800009961B8D04E0DE8B0C961E8C09965B8CF1
:101990000D930D247CE116236343C24E5B199B5DBE
:1019A000002B00D16EE1BE4EA700AB00F719F31873
:1019B0007A6803935B68201CD31A0E300A93291CA3
:1019C0008300F3180E3105938B00F31806930490EF
:1019D000059B06985A6843680291D31A0A99D8174A
:1019E000CA170B931B1889184340514008932B1CAE
:1019F00007913833211C9B003831F31889005B684C
:101A0000891904311DA81D93FFF708FF0299786812
:101A1000CB001790F31804215A5E04990292CB0070
:101A2000039AF6185768029B0422B65E0299F318CF
:101A30000393331C7B4348430399C01802F0FAF820
:101A4000059A1890069853680299199747681A934F
:101A50007E434B430399981902F0ECF80C221B903B
:101A6000002114A81C9702F085F975226A441278A7
:101A7000762352B210926B441B7877265BB2119397
:101A80006E4436781DA876B212960022825618202F
:101A9000571C4243844B0026D31805961393B5E098
:101AA000069EF6010E96119EA5E01398059943181F
:101AB0009B191B7E5BB20393013B0D2B42DD002083
:101AC00001214942844608230196013B774ADBB253
:101AD000D256774E0492F656069A9219013218267B
:101AE0005643714A9219029E9619049A0F96B2189B
:101AF0000492527852B2013A0D2A0ED8AA4201D06D
:101B0000A24204D14E1C04D0914204D105E0012030
:101B100003E0111C01E001229446002BD5D1019E67
:101B2000013168D03201D219624B5200002813D023
:101B30006046002810D10399985A0F3902F07AF8BC
:101B400003900BE0002B56DBAB4201D0A34252D1F5
:101B50003201D219574B5200D35A039303990029EB
:101B600049D0029A0323D2010F920293029B079954
:101B7000013BDBB2089A98000293049091420FDD7A
:101B80001AAB18580F990B9A401A50430A9902F051
:101B900051F8049A17A98B58C0180E9BC01A0FE071
:101BA000049A17A988580E9B0A99C01A48430B99A2
:101BB00002F040F804991AAA53580F9AC018801AD4
:101BC000C317C01858407F2812DC02998B0080216F
:101BD0000A1A039850214243D211C91804926A4646
:101BE0008858049984460A1C6244503368461A5047
:101BF00002990029BAD10136129B721E02929A42B2
:101C000000DC52E7059E01371836059610987E1EB7
:101C10000696864200DC43E7169B149E9E4200DD3A
:101C20001E1C0799089A244F91420ADD900102F088
:101C300001F83F2800DD3F203B5C2D21C81A0C9A9B
:101C40000BE0079B0899980101F0F4FF3F2800DDA5
:101C50003F203B5C2D210D9AC81A5043099A5343EB
:101C6000C01801F0E7FF7043159B8012834209DD25
:101C7000A54202DA231C2C1C1D1C201C291C1DAA99
:101C8000FFF774FC01350E2D00D084E6002C15D032
:101C9000251C013C7FE6C0463C1300207610002046
:101CA0005C0600202805002049130020343E000077
:101CB0003C3E000000040040F43D0000014B1FB01A
:101CC0001B68F0BD38000020F7B5012149420F2202
:101CD0001C4802F04FF8FFF7BFFDFFF743FE1A4C18
:101CE0000023261C2360743601931F1C1D1C002139
:101CF000725EFBB2002A1DDD226801322260114AA9
:101D0000D5559D4214D00199AA000B195968A21803
:101D1000281C51600E30DA6B8300C000E3182018D5
:101D20005A600430311C082201F0E6FF00233380A2
:101D30000135EDB2019A01370432083601920E2FB7
:101D4000D5D1F7BD780700205C0600204943404309
:101D500040187047F0B5914B85B01B78E020002B00
:101D600001D0800200E040028D4B0022191C94310A
:101D70000A80191C9A310A80191C8C310A80191C9E
:101D800092310A80191C84310A80191C8A310A8018
:101D9000191C7C310A80191C82310A80191C74318B
:101DA0000A80191C7A310A807E4A1168021C884216
:101DB00000DD0A1C01211A6049420E227A4801F016
:101DC000D9FF7A48FF21382201F0D4FF754B002457
:101DD0001B680393764D2B5D002B3ED0754EA30000
:101DE000F758754BE02062003F0140020126D318EE
:101DF0003F187642002502931FE02B1C0E336949E1
:101E0000DA008A180420125E002A14D0AA008A1868
:101E1000029950688A889B00801A624A00B2D318DF
:101E2000029A5968138BC91A09B2FFF78FFFB8429B
:101E300001DA2E1C071C0135EDB2039B9D42DCDB51
:101E4000751C0AD0584B59499857B200013002D03E
:101E50008858B84201DD8F509C550134052CB9D10A
:101E60000023504A4E4934E04F4EF05C44B20134F6
:101E70002DD09C00C0B2161987007668CD196E600F
:101E80001D1C0E350195AD00AC46061C94440E3663
:101E9000654602970394B7006C68CF197C60019F78
:101EA000F600FD008E1955190436043590CD90C604
:101EB0001D1C3835AD00383055196D688000081884
:101EC0004560039C3948029D20583A4EA851013381
:101ED000DBB210688342C7DB0023324C304949E053
:101EE000314FFA56013243D11A1C0E32D200A218D9
:101EF0000420125E002A3BD02D480022865CD5B219
:101F0000002E32D1D600761874360027F65F002EE8
:101F10002BD125489E00C554224895008619766825
:101F20004D196E601D1C0E3503951E4EAD00AC465E
:101F3000101CB4440E30664675688700CF197D606A
:101F4000039FC5001748FE0086194D190435043655
:101F500081CE81C51D1C3835124EAD003832701946
:101F6000920040688A18506002E00132052AC5D10B
:101F70000133DBB222689342B2DB104B0A491C1CCE
:101F80000E34FF201A78042A02D88A5C1A7000E006
:101F900018700133A342F5D105B0F0BD150400203F
:101FA000980200205C060020950700200413002002
:101FB00020010020F8000020100C002078070020ED
:101FC000F0B52548254A26490523013BDBB21D1CF7
:101FD0000E35EC0007190426BF5F002F1CD0141922
:101FE0000426A45F002C17D09F00D419C719646879
:101FF0007F685E00E71B7F103C19AD008F19BC8025
:102000005419451964686D681F1C651B0C376D10E9
:102010007F002C19CC530EE09D0055196D685C00B3
:102020000C19A5801D1C0E35AD001C1C55190C3457
:102030006D6864000D531D1C084C0E35ED006519CC
:102040000426AD5F074E6F1EBD41F554002BBCD179
:102050002268034B1A60F0BD6C010020980200203A
:10206000100C00202001002008B500210A220B4896
:1020700001F080FE0A4B0022191C94310A80191CC1
:102080008C310A80191C84310A80191C7C310A8029
:10209000191C74310A801A6008BDC0468C020020E9
:1020A00098020020034B012252425A6000221A601B
:1020B0009A607047E800002008B5FFF7D5FFFFF7EA
:1020C000F1FF08BD10B52C4900220523013BDBB20E
:1020D000181C0E30C000081840890C1C824200DA1F
:1020E000021C002BF2D125494A602268002A36DD05
:1020F000234B244A0E20195E234B5A2904DD1978FC
:10210000002901D1142103E01168002901D001390F
:1021100011601A78002A0ED11C4A1278002A0AD1BE
:10212000174A1020115E0F2905DD0E21525E312A5B
:1021300001DC01221A701B78002B12D0104A0E20ED
:10214000135E7D2B07DC1021525E64214A43053269
:102150009211934205DD0C4B00221A7001E00C4AEB
:102160001370094B1B78002B05D0084B1B78002BF4
:1021700001D1FFF779FF10BD98020020480600202A
:10218000B40300204C000020300000201504002083
:10219000F400002038B559435043D4186510401856
:1021A0004019211C01F046FD38BDF0B5BB49BC4AC1
:1021B0000B1C3E331F780B1C5A331B7852688BB0B4
:1021C00053439B118E8EB74D02933224085F2A68C9
:1021D00005230390013BDBB2181C0E30C000281809
:1021E000818800292CD0B04C09B2E45C002C02D0CC
:1021F00064B2BC4217DA0398814208DB191C0E3125
:10220000A84CC900611849890298814218DA181C43
:10221000A4490E30C00008180021C180418181808E
:102220009C00A2480AE034B2A14209DA0021C18030
:1022300041818180980084469C4864462150013A3F
:10224000002BC7D19A49974D0A602B600524013CA9
:10225000E4B2231C0E33DE000796AF19BA88002AB9
:1022600000D192E08D4E12B2B18E924E08B2121A87
:1022700052104900511889B2029168460821085A43
:10228000894AB880115D367848B20396B04202DAC6
:10229000013111554FE08848A600874982199B00FB
:1022A0005068CA185268AE1901922A687168EB1812
:1022B00001322A605A6808930B1A0492DA179B18A5
:1022C00053409C46019A049B9B1ADA179B18534073
:1022D00063440593714B3A229B5E1A1C0693059B3F
:1022E000FFF758FF04990990069A0198059BFFF79C
:1022F00051FF099B70497360089E079A7060674E92
:102300003C20365E01968E180423F05E6A46082350
:10231000995E431ADA179B185340019AFFF73AFF68
:10232000B88070897989019A431ADE179B19734026
:10233000FFF730FF7881604A5A4BA10050185918B6
:102340004968261C0E364160B1005018591849687A
:10235000F600416091199E19B4460427BC440296C8
:1023600004316046C0C8C0C1211C383189005B18E7
:102370005B68521853604C4B039E1B57B34206DAFE
:102380000123029F5B42BB8001E0474E3255002C87
:1023900000D05CE74348484905680A68474B9542C6
:1023A00027DA1A6801321A60002A1DDD021C1C603F
:1023B000943212880B1C94331A80021C8C321288BF
:1023C0000B1C8C331A80021C843212880B1C843341
:1023D0001A80021C7C320B1C12887C331A807430E9
:1023E000038874310B8005E08E22520001F084FCDA
:1023F00000E01C602B4B324C1A682F4B00271A60F0
:10240000304A01231578254A5B42111C276063601E
:10241000373109783E324E000391049612780193C9
:10242000059202972FE0013DEDB22E1D7600A15BD3
:10243000002923D0039809B2091A049A49105118A7
:1024400089B22148A153435D059A934204D20133D6
:1024500043550023A35316E01C4B09B2F05E01372D
:10246000431ADA179B1853401422FFF793FE80B2E9
:10247000A053029E00B2864203DB04E0124E715567
:1024800001E001950290002DCDD12760019F0F4BF7
:1024900067600BB023CC23C3F0BDC046761000208C
:1024A000480600209802002068100020F800002054
:1024B0003C130020B41000206C0100208802002092
:1024C000E80000200C0C0020E10B0020DC000020C4
:1024D000F8B5344D041C0A23EE5E036869681801E0
:1024E000C31A5801C90101F0A5FB3618266008235C
:1024F000EF5EC820636829688000C901584301F075
:1025000099FB2A693F1867602749964207DA063126
:10251000CB7FB61A5E43B611921922600CE0F0230D
:102520005B009E1B964207DA0631C97FB61A4E43FE
:10253000B61192199B1A2360EB681B499F4207DA78
:102540000431CA7FFF1A5743BF11DB1963600CE0E7
:10255000C8229200D71B9F4207DA0531C97FFF1AB4
:102560004F43BF11DB19D21A62600F4A2168931CD6
:10257000DB7F101C994206DD0A4A5269D51AA9422E
:1025800002DB013AD31A2360C21C6168D37F9942EF
:1025900006DD044A9269D01A814202DB013AD31A5D
:1025A0006360F8BDEC0B0020520C0020F0B5484EE3
:1025B00085B00524013CE4B2211C454A0E31CB0014
:1025C000D31804201B5E002B62DD201C414B14300D
:1025D000400018180425405F002849DD3E4B1A5D75
:1025E0003E4B002A01D13F3300E040331F78A30067
:1025F000F3185B6868460093231C0E339B00F318A6
:102600005B680193FFF764FF324D6300EB18042011
:102610001B5E02A80293231C0C335B005B5F0393D9
:10262000FFF756FF029B009A291CD31AD8171B18D4
:102630004340BB4207DA019A039BD31ADA179B186F
:102640005340BB4224DBA200B21852686300CB188F
:102650009A80221C0E329200231CB21852680C334E
:102660005B00EA521C4B1A5D002A11D101220EE0D8
:10267000A500551960006D681818890085805218EA
:10268000201C52680C304000C252134B00221A55D5
:10269000201C0F4A0E30211CC0000E4B14311018A4
:1026A0004900808859188880002C83D111680C4A11
:1026B00019600C4B1C1CE0CCE0C20122002902D1A5
:1026C0001A68531E9A41084B05B01A70F0BDC046F7
:1026D000980200202C0100208C020020761000209F
:1026E000D0000020E800002026040020EFF308803E
:1026F000704700BA704740BA7047C0BA70471F238E
:102700004209184001238340181C024B9200D0500C
:102710007047C04600E100E01F2342091840012332
:102720008340181C2032024B9200D0507047C046A4
:1027300000E100E01F234209184001238340181CD8
:102740006032024B9200D0507047C04600E100E07A
:1027500070B5002816DAC0B20F230340083B134AB5
:102760009B089B009B18032210409040FF225D684D
:10277000141C84408901A5430A408240281C104350
:10278000586011E003248208094B2040C032A04069
:102790009200FF24D558261C86408901B5430C4081
:1027A0008440281C2043D05070BDC04618ED00E086
:1027B00000E100E08023DB051A6B1F218A4315210D
:1027C0000A431A635A6B0F218A430E210A435A6344
:1027D0007047074B3F2019688023DB050139014012
:1027E000044A586B090202400A435A637047C046C4
:1027F000E40B0020FFC0FFFF8023DB05596B034A79
:102800000A40802189000A435A637047FFC0FFFFD6
:102810008023DB055969082211435961D968914326
:10282000D96070478023DB055A6908218A435A61C1
:1028300070478023DB055A6908210A435A617047B3
:102840008023DB05586908231840434258417047EC
:1028500030B5A023DB051A68012082431A601A688C
:1028600010218A431A601968204A80240A40802176
:1028700009020A431A601A681D49E4000A4022430B
:102880001A601C688022120614431C601D68194CD3
:102890002C409025ED052C431C605C68204358605B
:1028A000586801408020400001435960586812492F
:1028B0000140C02080020143596058680F4901401F
:1028C0005960586880218905014359605868802102
:1028D00049050143596019680A431A60C0468022BD
:1028E000596852040A435A6030BDC046FF0FFFFFCB
:1028F000FFF8FFFFFFFFFF80FFFFF8FFFFFFFFFE76
:1029000038B5094B09495A78DC785143084B051C06
:10291000C918084801F08EF9064B291C01345843A8
:10292000A14001F087F938BD400D002044FEFFFFB3
:10293000FE24020040420F00014B18707047C04651
:1029400002000020054B19688023DB05DA6B0902C1
:10295000120E090A12060A43DA63704704000020C7
:10296000014B18607047C04604000020024B1878E5
:10297000434258417047C0460100002070B51349DA
:10298000134B04241960134B134D1A6822431A6029
:102990001A680224A2431A601A68012422430F4CC9
:1029A0001A60002222600E4A11602E78ED78704382
:1029B0000135E840091A1160206811688842FBD28D
:1029C0001A6801218A431A6070BDC046FFFFFF00EC
:1029D00014E000E010E000E0400D002018E000E00E
:1029E0003806002001304300181840187047F0B531
:1029F0008DB003AC0091071C0021201C242201F0A3
:102A0000B9F90C25013DEDB2234A281C0321565D7E
:102A100001F006F90C23CCB25C4376B203AA6B1C1E
:102A2000301C03211419019301F004F9019A40B2FA
:102A3000800023898240101C18430123B3401E1CD0
:102A4000638820811E436680002DDBD103240C2582
:102A5000009B013CE4B2002B08D02B1C634303AA6B
:102A6000D3180E4A0121D257914059602E1C66435B
:102A700003AB9E197B1C211C7381381CFFF7B2FF2E
:102A80006843074A311C80180C2201F035F9002CEC
:102A9000DED10DB0F0BDC046104D0000F84C000076
:102AA000000C0040F0B589B005AC0C27061C3A1CA0
:102AB000201C002101F05EF9204A012151561278B4
:102AC0001F4B52B29A5C595C1E4B01259B570091DB
:102AD000291C99400191301C00210392FFF782FFCD
:102AE0006A46B918029009780020105649B22B1C8A
:102AF0002A1C8A4083401343019A0091032163807A
:102B0000626001F097F843B29B0002229A4000985D
:102B10000321019201F08EF840B2800085400298B6
:102B2000019B784308491D4301363A1C4018211C7B
:102B30002581668101F0E0F809B0F0BD204D00006C
:102B4000104D0000F84C0000000C004010B50120B2
:102B500040420021FFF74BFF0024201C01210134DB
:102B6000FFF745FF142CF8D1201CFFF79BFF10BD89
:102B70007047F0B589B000260090334B6846049149
:102B800006968683DB7B171C5BB202932F4B351CAA
:102B90001B78341C0393931E5A1E93415B4205938A
:102BA000E8B2012F06D12A4B0099029ACB189C5704
:102BB000A4180AE0002F06D1009B26495A181623B4
:102BC0006B43D45601E0059A1440049B0399E41822
:102BD000002901D0103408E0221C083202DA08244F
:102BE000644202E0072C00DD07240F2303211C4070
:102BF00001F016F8184BC9B249005857019103214A
:102C000001F018F842B292000199231C934006A8E3
:102C10001A1C0B5A01351343021C8B5218360C2D0B
:102C2000BED10E4E0324013CE4B20098211CFFF7F4
:102C3000D9FE63006843183369465B5A825B83534D
:102C4000002CF0D109B0F0BD761000206C000020FF
:102C5000224D0000480D0020104D0000000C0040E7
:102C6000F0B587B02A4B01900491DB7B171C5BB257
:102C70000293284B00261B78341C0393931E5A1E84
:102C800093415B4202250593013DEDB2012F08D12E
:102C900018226A43019BD2181F4BD456029AA418DB
:102CA0000AE0002F06D116236B43019A9B181B4A9A
:102CB0009C5601E0059B1C40049A039BA418002B22
:102CC00001D0103408E0221C083202DA08246442E1
:102CD00002E0072C00DD07240F231C40104B114A93
:102CE0005B570321D05600F0A5FF43B29B00221C86
:102CF0009A401643B6B2002DC6D10198291CFFF7A1
:102D000071FE0C225043084B07B0C25AC652F0BDA8
:102D1000761000206C000020224D0000480D00209D
:102D2000204D0000104D0000000C004070B5274AF7
:102D30008023DB05147C9D68072125480C40240373
:102D40002840204398609C68224820409860947AEC
:102D500003209D68044020482404284020439860B4
:102D6000547A3F209D6804401C48A4042840204316
:102D70009860107A9C680140080619492140014377
:102D80009960986880210905014316489960048874
:102D9000191C38310C7085789E6B7F21124C0D40C8
:102DA00034402D022C439C6304799D6B0F480C40EA
:102DB00028402404204398639279986B11400A06B6
:102DC0000B4901401143996370BDC0467610002045
:102DD000FF8FFFFFFF7FFFFFFFFFFCFFFFFF03FFF2
:102DE000FFFFFFF840060020FF80FFFFFFFF80FF8E
:102DF000FFFFFF8070B58023DB0559684D4A0A400C
:102E00005A6004225A625A61C046C046D9691142CA
:102E100001D04D2103E0D969114202D14621464A31
:102E2000117000223F205A629A62DA601A6158617A
:102E30009A61424A0124507880211871D0785D68E7
:102E400004403F48A40728402043586010790324D9
:102E50005D6804403B48240728402043586055796A
:102E60000F205E68384C05402D0434402C435C60D4
:102E70009579364C5E6805402D0634402C435C60E5
:102E8000D2795C68104002053148C90520401043E2
:102E90005860304B8A681B7D002B03D080231B01B8
:102EA000134301E02C4B134080248B60E405FFF7B3
:102EB0003DFF236B602293432363236B80221343E4
:102EC00023630025FFF776FCFFF7C2FCFFF73EFE09
:102ED000281C65700221FFF73BFC291C0120FFF72D
:102EE00037FC02200121FFF733FC0320011CFFF710
:102EF0002FFC04200321FFF72BFC02210520FFF704
:102F000027FC281CFFF7FBFB0120FFF7F8FB022042
:102F1000FFF7F5FB0320FFF7F2FB0420FFF7EFFBC1
:102F20000E4B04215D600E4B1A690A431A6162B6AA
:102F300070BDC046FFFEFFFF42000020400D002094
:102F4000FFFFFFBFFFFFFFCFFFFFF0FFFFFFFFF01F
:102F5000FFFF0FFF520C0020FFF7FFFFFCE100E036
:102F600000ED00E000B58021C9050B795A1E98429A
:102F700009DD01E0DAB20A7101338342FADD04E0CF
:102F8000D3B20B71013A8242FADA00BD38B5194C5E
:102F90006078FFF7E7FFE2788023DB0501215868BE
:102FA0001140154A890702400A435A6022790321D9
:102FB00058681140114A090702400A435A60607973
:102FC0000F225D680E4910400004294001435960FA
:102FD000A0790C495D681040294000060143596002
:102FE000E17958680A401105074A02400A435A60CD
:102FF00038BDC046400D0020FFFFFFBFFFFFFFCFE1
:10300000FFFFF0FFFFFFFFF0FFFF0FFF08B50C4AC7
:103010000C4B0D4901E001CA01C38B42FBD30B4BA2
:103020000B49002200E004C38B42FCD3FFF75EFB98
:10303000084B002200E004C38342FCD308BDC04615
:10304000443E00000000002048000020480000200E
:10305000181500200C160020F7B52D4B00241C700D
:103060002C4B211C5C6030222B4800F083FE2B4B44
:103070002B4A1C70012313702A4A201C13702A4B00
:10308000D9790C23013BDBB2284D5C1C162762006A
:103090005F43565B264D5A000E415653019713224B
:1030A0009C46013AD2B2531C1B01204D1B195B00F8
:1030B000EF5A931C1B011B195B00EB5A0F410B418C
:1030C000FF18019B7F109D181A4BAD00EF50F71BA6
:1030D000C019002AE5D16346002BD3D1124B164DFF
:1030E000DE8D002E02D140232B600BE0E42100F0A6
:1030F000A1FDB601011C301C00F09CFD6E2800DD16
:103100006E2028600D4B00221A605A60F7BDC04641
:103110008E070020C40B0020E414002000130020C0
:10312000EA0B002046130020761000200008004023
:10313000CC140020A4070020080C0020500600201A
:10314000044A00231370044A1370044A1370044A9B
:1031500013707047500C0020E00B00204413002037
:1031600048130020F0B5944B9FB01A78002A00D085
:1031700075E2924B924918780C78013001340601BF
:103180003619904D7600E4B2765B0C700B2C05D9A5
:103190000A70C1B21970132900D91A708A48002325
:1031A0008A49FF22036042608360C26088484B60A6
:1031B0000B608B83CB824B834B82CB818B608B816B
:1031C000C47918270B940B9D824C2C411594824C8A
:1031D0004678246816961794804C1E1C2478189400
:1031E000041C3934247819947D4C24781A94C757D8
:1031F0001C24139704571B94407E039340B21490F1
:103200000A930D7D1095497D0993119105920D93B7
:103210000E920F9307930C9308930C2101E10498ED
:1032200009E018224A436F4F0025D2191C9216223A
:103230004A43281C1D924C1C0694471C1C9C049756
:1032400022180027049C5776069F2201D2195D4F51
:103250005200BC5A069F821C1201D219594F5200CB
:10326000BA5A0B9F3A413C41A418159A6410141B9A
:10327000E243169FD2171440002F07D05A4A1D9FD1
:10328000BA18125C5443179A54432413574A5827C8
:103290009446189A002A10D14F43800067443A5848
:1032A000069018B2121B904200DA93B230B29042EC
:1032B00000DD96B2069ABC50AEE04F43BC44624675
:1032C0008700D7594A4A7F11BC462C274F43BA186A
:1032D0000292575F129767463A1B199F002F0AD038
:1032E00062001219129F01926446E21B019C67461C
:1032F000A2189210BA1A1A9C002C05D0129FBC1862
:10330000029F64107C5301E0029C6253029F6C4652
:103310007F5B029708273C5F089F12943F1908972C
:10332000129F1CB2BC4202DA6C4608273B5B34B2E7
:10333000A4466C4608340027E75F9BB2BC4502DD1B
:103340006F460824E65BB6B2002A53DB132A03DD7E
:103350000C9FBC18A4B20C94139CA24203DB039FE5
:10336000141B3F1903976F46283700243C5FA24285
:1033700005DD94B20A94C7B2CCB2109711941B9F8A
:10338000BA420FDB099C8C4200DA0991059F8F42FB
:1033900000DD05910D9C844200DA0D900E9F87425E
:1033A00000DD0E90049C069F2001C019054C92B2CE
:1033B0004000225230E0C046500C0020DD030020C7
:1033C000DC03002000080040F0120020B4030020BD
:1033D00076100020FFFF0000080C00208E07002060
:1033E0001504002049130020724E0000A40700209D
:1033F000DE1000200F9F1498BF1A0F97824203DC43
:10340000079C121AA4180794049F06983A011218F0
:10341000944C52000027A75204980235132800D07C
:10342000FDE60139C9B2FF2900D0FAE68E4C302200
:10343000A683282769466E46515ABE5B039D10AF8E
:103440006383A181894B2560E6813F780999059ABC
:103450000D9D0E9E11A81D6099605E602775007815
:10346000DA600F9F824B079D60750026995FA76009
:103470006560089800F0DEFB7E4BE0831B78002B34
:103480000BD07D4B1B78002B07D0039F00239F425E
:1034900001DD7B19DB0F794A13700C230022013BFD
:1034A0007748DBB219186F4C49006252002BF6D1F5
:1034B0006D4A0E25505F734AC417957EE90FA842E6
:1034C00061417148CEB20170704903960978704924
:1034D0000978002900D0C2E0D779101C0697563031
:1034E0000027C65F101C079658300027C65F694941
:1034F000089652780C780992674A66001268059619
:103500000A925D4A654E1278059F0B92644ABE1975
:103510001278211C0492634A181C12780C960E949F
:103520004DE0614C4E1EA457271C01373F0179180E
:103530004C4F4900795A0C9C8C46E11802390C8892
:10354000069967460F415149BFB20978E71B002928
:1035500009D1079CA74202DC08998F4203DA0122B5
:10356000101C03920492099CBFB2002C04D04F4956
:10357000895D4F43BF11BFB20E9989008C464C49FB
:103580008C4459006144043909684911C91B89B246
:103590000FB2AF4200DB01200A9C002C05DD0B9C22
:1035A000674267410D977F423940424F059CBC46B8
:1035B000A4446446E718023F3980023B311C0029CD
:1035C000AFD110266D46364B755D0C276E461D70CB
:1035D000BE5D2D4B1E702E4B1870324B1A700B1C9B
:1035E000A82701317F00CA191E48520083520C29B6
:1035F000F6D100252F4C6B00E35E1E2B2CDD2E4EEA
:103600001F4F71572D4E2E4ACC1988196400223154
:10361000A75AFF3140004900865A7F008A5A9F42CC
:103620000ADA76009E4207DA52009A4204DA0D4F17
:1036300000233B533B527B52224C23685A2B07DD1D
:10364000FEF730FD204B11221A700023236003E0A7
:103650001E4A0133236013800135022DCAD11FB0E9
:10366000F0BDC04600080040B4030020F012002066
:10367000E80B00208E07002015040020D503002051
:103680004101000076100020E00B002034000020F3
:10369000441300200C0C00206C010020CC140020EE
:1036A00048130020FC0300201E4D00007A4F00004C
:1036B0005006002072100020204D00003101000053
:1036C000000400403C06002094070020A0140020C5
:1036D000F7B50F4B0F4A104FD9790C23013BDBB2E2
:1036E0005C1C6400145B451C07D15E0001960C4114
:1036F000261C0A4D019C665307E0A44616245C4331
:1037000065462418A4000D41E551002BE6D1F7BD14
:103710007610002000080040A4070020CC140020F0
:10372000F7B51D4B0025DE798C460C23013BDBB23F
:10373000411C03D1194A5900895A05E01621594301
:10374000174C09188900615A5C1C164A6400A75A74
:103750003741C91BCF17C91979406D18411C0DD1CC
:10376000A15A5A003141019200916F463A880B49A3
:10377000019F7A520B4F0021E15308E00949675A33
:1037800016245C4306492418A40037416750002BD7
:10379000CCD161460D60F7BD76100020CC1400201E
:1037A000A407002000080040F7B5844B1B78002BCD
:1037B0002BD0834B834E1878834B44B219685B68D7
:1037C000A200CB189351411C0023271CC9B21A1C1C
:1037D0000C37A51A00D5BD1AAD00AD595B190D1CEB
:1037E0000B2901D90C3DEDB2AD0075590131013203
:1037F0005B1BC9B2062AECD10130714AC0B210700D
:1038000040B20B2801DD00211170704A1278002AA5
:1038100000D0D1E06E4A1420115E8B4202DA6D4B6B
:103820000121197068491A23C85E1C240B5F917D21
:10383000C31A8B4206DC684B1A7851B20132022956
:1038400005DD05E0D27D934202DB634B00221A7056
:1038500060495A4B0A78002A43D05F4A1278002AFE
:1038600004D1187800283CD00A703AE0032A38D1F5
:103870001C780C21594A1AE016254D431323013BAD
:10388000DBB2002C08D1EE18B700D0597600400109
:10389000D051534FBC5308E0EF185148BE007F0091
:1038A000C75F90597F01C71B9751002BE7D10139A2
:1038B000E2D2424A00231178994205D101231370C4
:1038C00008E05818026301E03E491A1C043B1C1C26
:1038D0003434F6D13F4B00221A70424B01221A7049
:1038E0006AE01A78404B002A06D13E4A0121117045
:1038F0001A6852181A605FE000221A60324B1A6888
:103900005F68BF18394A127800921E269B5F334ABF
:10391000D9175818484001900C2123E016254D4333
:103920001323013BDBB2002F1ADB009C002C08D0D4
:10393000EE18B00074002A4E345F1658341B145031
:103940000EE0E818264C86004000205A04B2072CEE
:1039500000DD0720019C00B2A0409459201A90512C
:10396000002BDED10139C9B2FF29D7D1184BDC7E3B
:103970001E4B1B78002B01D164B200E01C4C1D4B88
:103980001B78002B18D11C4B1C4A1B781C4811E0DB
:10399000013BDBB29D00A958002903D05E00865F81
:1039A000A64204DA5E00865F9D00760100E07600A4
:1039B000891BA950002BEBD1F7BDC0468E07002014
:1039C00000130020E4140020B4030020E00B0020CA
:1039D0007610002046130020EA0B0020A4070020E8
:1039E000DE10002048130020F403002015040020FE
:1039F000D4FEFFFF441300200C0C002050060020D2
:103A00007210002010B507495C22074800F074F9D5
:103A1000064C0749201C382200F06EF9A27B054BAA
:103A20001A6010BD404C000076100020520C00209F
:103A3000084C00009C14002008B50449044B414385
:103A40000448C91800F0F6F8C0B208BD44FEFFFFF4
:103A5000FE24020040420F0010B5204B0022DA7015
:103A60001F4902221A718978042905D1D020987043
:103A70000C2058719A71DA711A4B1B78AA2B26D137
:103A8000194B1A4A1B78127858B252B28018184A49
:103A9000127852B28018174A127852B2904216D158
:103AA00004394A42514149420B400C4A0C4994782E
:103AB0004C31097858B220184018FF2803DDC9435B
:103AC000C9B2917003E09178CB18DBB29370034CCC
:103AD000A078FFF7B1FF207010BDC046400D002058
:103AE00076100020A000E000A100E000A200E000AD
:103AF000A300E000A400E00038B5124C124D23787A
:103B0000FA209A00D3189B10DBB22B802378800018
:103B100058430E4B9988C90000F08CF8C1B26980F7
:103B2000237823205843C90000F084F8084B022270
:103B30001A70084BE4221A80074BC0B24022A880BA
:103B40001A6038BD400D002040060020761000208D
:103B50000C0C0020E80B0020E40B0020704710B58F
:103B60001C1C029B88420ADB904207DA1B1B401A8E
:103B70005843511A00F05EF8241800E01C1C201C69
:103B800010BDC04602B4714649084900095C4900AD
:103B90008E4402BC7047C046002934D00123002265
:103BA00010B488422CD301242407A14204D28142BC
:103BB00002D209011B01F8E7E400A14204D28142CC
:103BC00002D249005B00F8E7884201D3401A1A4349
:103BD0004C08A04202D3001B5C0822438C08A04280
:103BE00002D3001B9C082243CC08A04202D3001B36
:103BF000DC082243002803D01B0901D00909E3E7B0
:103C0000101C10BC7047002801D00020C04307B42E
:103C1000024802A14018029003BDC046D90000002E
:103C20000029F0D003B5FFF7B9FF0EBC4243891A53
:103C30001847C046002941D010B4041C4C40A4468B
:103C400001230022002900D54942002800D5404226
:103C500088422CD301242407A14204D2814202D2FB
:103C600009011B01F8E7E400A14204D2814202D21B
:103C700049005B00F8E7884201D3401A1A434C0818
:103C8000A04202D3001B5C0822438C08A04202D34E
:103C9000001B9C082243CC08A04202D3001BDC0876
:103CA0002243002803D01B0901D00909E3E7101CB7
:103CB0006446002C00D5404210BC7047002806D056
:103CC00003DB0020C043400801E08020000607B469
:103CD000024802A14018029003BDC046190000002E
:103CE0000029EBD003B5FFF7A7FF0EBC4243891AAA
:103CF0001847C0467047C046F0B5051C0F2A2FD99B
:103D00000B1C0343051C9C072CD10C1C031C151C0D
:103D10002668103D1E6066685E60A6689E60E66864
:103D20001034DE6010330F2DF2D8131C103B1B092A
:103D300001331B01C518C9180F231A40032A0FD9D4
:103D40000E1C2C1C131C80CE043B80C4032BFAD801
:103D5000131F9B0801339B0003242240C918ED1850
:103D6000002A05D00023CC5CEC5401339342FAD1F5
:103D7000F0BDC04670B5830742D0002A3FD0013A5B
:103D8000CEB2031C032503E0541E002A37D0221CA8
:103D90001E7001332B42F7D1032A28D9FF250D408D
:103DA0002C0225432C0425430F2A13D91C1C161C56
:103DB000103E25606560A560E56010340F2EF7D8D1
:103DC000141C103C2409013424011B190F24224027
:103DD000032A0CD91E1C141C043C20C6032CFBD83F
:103DE000141FA4080134A40003252A401B19002A2B
:103DF00005D0C9B2013A19700133002AFAD170BD59
:103E0000031CC9E700010203040405060708090AA8
:103E10000B0B0C0D0E0F1011111213141515161794
:103E20001818191A1B1B1C1D1D1E1F1F20212122C3
:103E3000232324242525262727282829292A2A2B15
:103E40002B2C2C2DFFFFFF0000010101FF0001FFC3
:103E500001FF000100000000000000000000000061
:103E60000000000000000000000000000000000052
:103E7000000000000000000000000000FF00000043
:103E80008A0C002001FF030201000000010400046D
:103E900044000C060403410001000000FFFFFFFF87
:103EA000FFFFFFFFFFFFFFFFFFFFFFFFFFFFFFFF22
:103EB000FFFFFFFFFFFFFFFFFFFFFFFFFFFFFFFF12
:103EC000FFFFFFFFFFFFFFFFFFFFFFFFFFFFFFFF02
:103ED000FFFFFFFFFFFFFFFFFFFFFFFFFFFFFFFFF2
:103EE000FFFFFFFFFFFFFFFFFFFFFFFFFFFFFFFFE2
:103EF000FFFFFFFFFFFFFFFFFFFFFFFFFFFFFFFFD2
:103F0000FFFFFFFFFFFFFFFFFFFFFFFFFFFFFFFFC1
:103F1000FFFFFFFFFFFFFFFFFFFFFFFFFFFFFFFFB1
:103F2000FFFFFFFFFFFFFFFFFFFFFFFFFFFFFFFFA1
:103F3000FFFFFFFFFFFFFFFFFFFFFFFFFFFFFFFF91
:103F4000FFFFFFFFFFFFFFFFFFFFFFFFFFFFFFFF81
:103F5000FFFFFFFFFFFFFFFFFFFFFFFFFFFFFFFF71
:103F6000FFFFFFFFFFFFFFFFFFFFFFFFFFFFFFFF61
:103F7000FFFFFFFFFFFFFFFFFFFFFFFFFFFFFFFF51
:103F8000FFFFFFFFFFFFFFFFFFFFFFFFFFFFFFFF41
:103F9000FFFFFFFFFFFFFFFFFFFFFFFFFFFFFFFF31
:103FA000FFFFFFFFFFFFFFFFFFFFFFFFFFFFFFFF21
:103FB000FFFFFFFFFFFFFFFFFFFFFFFFFFFFFFFF11
:103FC000FFFFFFFFFFFFFFFFFFFFFFFFFFFFFFFF01
:103FD000FFFFFFFFFFFFFFFFFFFFFFFFFFFFFFFFF1
:103FE000FFFFFFFFFFFFFFFFFFFFFFFFFFFFFFFFE1
:103FF000FFFFFFFFFFFFFFFFFFFFFFFFFFFFFFFFD1
:10400000FFFFFFFFFFFFFFFFFFFFFFFFFFFFFF447B
:104010004D3148305052343400B5002802D00128C8
:1040200015D102E00A4A0B4B10E00B4A0B4B1A6009
:104030000B4A0C4B1A600C4A0C4B1A600C4A0D4B85
:104040001A600D4A0D4B1A600D4A0E4B1A6000BDE6
:10405000DD40000034060020154300006800002009
:104060003146000064000020814600001800002056
:10407000694A000014000020554300001000002091
:10408000794000000C00002008B5124B1B88DBB201
:10409000AF2B1BD0B22B19D0102B19D1FEF7C9FBB7
:1040A0000D4A002313600D4A11680D4A12689142AF
:1040B00002D108E0C04600E00A4B013B002BF9D1D9
:1040C000FEF7B0FB04E0084A136001E0FEF7B1FB25
:1040D00008BDC0461C000020200000207400002005
:1040E00070000020E9030000D4100020F7B501386B
:1040F000122800D9E9E0FFF745FD0A13E817E8E8C0
:10410000E845E8E895E89AE8CCE8E8E8D7006F4B9E
:104110001A786F4B1A706F4B9A786F4B1A70D4E005
:104120006E48FEF72BFCD0E06D4B1B78002B00D0C7
:10413000CBE06C4B1A78002A00D0C6E06A4B1978A5
:10414000181C49B2002900DCBFE0684901234C6813
:10415000002C0DDB0E23CC5E131C202C08DC8C689D
:10416000502C05DD1024095F01230A2900DC131CF3
:104170005F4ADBB21370002B01D0032202705D4A4C
:104180001370A2E0594C0E20235E282B04DD283B3F
:10419000DB100C33019308E006204343181C483819
:1041A0001C21FFF747FD06300190002525822F1CBA
:1041B0000C242FE000201323661C013BDBB25A1CA9
:1041C000120192194C495200525A8018002BF4D116
:1041D0001321FFF72FFD13238446013BDBB2591C4B
:1041E0000A01454892195200825A0198824201DD23
:1041F0000135ADB26046121A974200DA171CD0435F
:10420000C0170901024089193B4892B24900425245
:10421000002BE2D1013CE4B2FF2CCBD1334B1D8209
:104220005F8252E0354B02201B6898474DE03449CD
:1042300050200B68012B25D1324A1368012B21D164
:10424000C86BD36B4968C01AC317C018584053686D
:10425000CB1ADC171B196340C3181BB21D2B0BDDD7
:10426000312B0BDD3B2B0BDDC8204F2B0ADD502003
:10427000632B07DC642005E0FA2002E0C82000E0A0
:1042800096204000C0012821FFF7D4FC1E4B588720
:104290001BE0134B1A780F4B0533002A01D03C2248
:1042A00000E03222DA7710E0174B872252009A8022
:1042B00020229A710422DA7101221A723C225A7267
:1042C00000221A70114B9A785A70F7BDFF4B00000C
:1042D00030060020520C002031060020204E000045
:1042E000150400201A04002032000020B40300202E
:1042F0004713002018040020000400406400002040
:10430000980200206C01002076100020400D002053
:10431000024B1A68024B1A607047C04670000020BA
:104320007400002008B5FFF7F3FF08BD10B50A4C74
:1043300006222168094B51431B6809485918FFF7A9
:10434000DBFC23680133236023681D2B02DD236817
:104350001E3B236010BDC046740000202C000020CE
:10436000D810002073B5934A1388111C1BB2102B70
:1043700000D17AE027DC082B00D1C4E011DC042B4B
:1043800000D1E3E006DC022B00D1D5E0032B00D006
:104390000EE1D4E0052B00D1C7E0072B00D007E1E8
:1043A000A6E00C2B00D1DEE006DC0A2B00D1B8E041
:1043B0000B2B00D0FCE0D0E00D2B00D1DAE00F2B6E
:1043C00000D0F5E02BE0B12B20D010DC412B69D0E0
:1043D00006DC1F2B00D185E0402B00D0E8E05AE03E
:1043E000AE2B00D1D0E0AF2B00D0E1E0D3E0C12B69
:1043F00066D005DCB22B0DD0C02B00D0D8E059E040
:10440000C22B65D0E32B00D0D2E068E06A4A117875
:104410006A4A11706A4A1178B222D31A8AE000F00F
:10442000E1FD684C20602368002B01D1FEF701FA02
:10443000236806225A43614B634C1A700025614E73
:104440000FE0FFF773FF684660490622FFF754FC50
:10445000002369465A5CE2540133062BF9D1013539
:10446000063433689D42ECDBA2E05949554A0C689A
:10447000136806205843002384420ADA524A086827
:104480004E4D1018C45C581901330470082BF6D136
:104490008EE013608CE0128812B29B1A4D4AD189CB
:1044A000464A9954434B1A88412312B29A1A494BEF
:1044B000198A66E012884D2112B29B1A3F4A99541C
:1044C0003C4B45211A88C12312B29A1A3B4BD15456
:1044D000384B0A211A88C22312B29A1A51E0128864
:1044E0003D4901E012883D4912B209789B1A21E04A
:1044F000128812B29B1A3A4A128811B2C943C917DC
:104500000A402E495A542B4B1988082309B2591ACC
:10451000334B5B881AB2D243D2171340274A8B54CD
:1045200046E0304912883631DEE7128812B29B1A13
:104530002C4A518E214A25E0204B31221A700A88DC
:10454000032312B29A1A1D4BE021D154194B20219A
:104550001A88042312B29A1A13E01288142112B294
:104560009B1A164A9954134B144A19880C2309B202
:10457000591A8B540F4B1A881B4B12B219780D2302
:104580009A1A0E4BD15413E0184B1A780B4B1A7031
:10459000FEF74FF90CE016490D4A00230C6810682D
:1045A000064D2018C45C581901330470082BF5D14E
:1045B00073BDC0461C0000201704002010000050EE
:1045C00016040020D410002078000020D81000200D
:1045D00020000020B4030020520C002042000020E4
:1045E00072100020761000200C0C0020A307002081
:1045F000500E002073B50F4C0F4D009001912068B4
:104600001E211F302E68FFF76BFBB142F7D02068E8
:1046100006225043094B69461B681818FFF76CFBCC
:1046200023680133236023681D2B02DD23681E3BB2
:10463000236073BD70000020740000202C00002057
:1046400007B5012802D002280BD101E00F2300E0BA
:104650000E236A461370002353709370D370137146
:10466000537100980199FFF7C5FFFEF7DBF807BD0E
:1046700007B506235A43019104490090086869462A
:1046800080181A1CFFF738FB07BDC0462C0000201D
:10469000F0B58D4B8BB01A78002A04D18B4B19786A
:1046A000002900D01A7000270125894E02953C1C74
:1046B00088483D1804216B5E06A806931822AB5E5D
:1046C0000793FDF705FF0020335E002B59DD824B79
:1046D000A200D3185A68DB6B04A804920593FDF777
:1046E000F7FE069A079B0392059A0499D31A9C46F3
:1046F0007A4B1B787A4B40331B7801936346D8176B
:104700001B1843409C46019B9C4507DA039BC81A33
:10471000C317C0185840019B984203DB714B1B5DC7
:10472000002B03D12C202B5E002B63DC602568421C
:10473000029DE3B22843019308AB0F2518700812BD
:10474000284003901011A843051C03989970F18824
:104750000543DA705D70FF22FE2900D8CAB21A71D3
:10476000328811B2FF2900DDFF225A71019800F052
:104770000DFC021C0898511C01D1099935E00999DA
:1047800036E02C22AB5E002B34DD029D202208ABEC
:104790002A4306991A70079A0D1212110F218A43A3
:1047A0000D40154318215D706D464D5D1C22694614
:1047B000515C454AE0B212789D70D970002A08D049
:1047C000424A1178002904D10E2119710123137076
:1047D00001E000221A7108AD00236B7100F0D6FBD6
:1047E000021C69680898531C02D1FFF703FF01E01F
:1047F000FFF73EFF029D023701350134029508366E
:104800000A2F00D054E7384B5A68384B5B68501C6D
:1048100035D09A424ED0591C17D04022013308ACF3
:104820001343237000236370A370E37023716371DB
:10483000052000F0ABFB021C61680898531C02D1F4
:10484000FFF7D8FE01E0FFF713FF274A4023516826
:104850005B42481C08AC0343237004310023490029
:104860006370A370E3702371535A0520637100F0E5
:104870008DFB021C61680898551C19D114E0581C66
:1048800018D04022013308AC134323700023637017
:10489000A370E37023716371052000F077FB021CA5
:1048A0000898511C03D16168FFF7A4FE02E061681B
:1048B000FFF7DEFE0E4B1A680E4B1B689A4201D0C2
:1048C000FDF7B0FF0BB0F0BD150400206000002024
:1048D0000C0300202C010020980200201C04002062
:1048E000761000208C020020E8000020D00000207C
:1048F000740000207000002073B5051C0E1C141CF1
:10490000502805D14F4B01201860FFF785FB97E039
:10491000402806D14C4B00221A734C4B01221A70CE
:104920000CE04D280AD14A4B26221A702C224A4309
:10493000484BD218484B1A60FDF774FF434B1A7866
:10494000002A7DD0281C41380E2879D8FFF71AF9A3
:104950000F170F260F35787878430865787876003A
:104960003E4B3F4819786A4600234DB247E0384B2A
:1049700001221A703B4B1A80374A13605BE0344BBC
:10498000FF2C03D128221A70002401E002221A70A1
:1049900016235E43A4196400334B49E02C4BFF2CD3
:1049A00003D128221A70002401E002221A70162373
:1049B0005E43A4196400274B3AE0254BFF2C03D13A
:1049C00014221A70002401E001221A7016235E439B
:1049D000264BA4192CE01E4BFF2C06D11F4A0024A5
:1049E00012785200D2B21A7001E002221A706400EA
:1049F0001F4B1DE040C801331680DBB202325EB2AD
:104A0000AE42F7D14900124A134BC9B2FF2C00D075
:104A10000221117000AA1A600DE00D4BFF2C04D189
:104A20000E4A002412781A7001E001221A70114B0C
:104A3000E418094B1C60FDF7F5FE01E000221A7036
:104A400073BDC0469C140020761000202004002076
:104A5000A3070020DE100020500E00200C0C0020C8
:104A60005006002088070020580E0020480D002026
:104A7000721000203E0D002008B53D4B1B88302BE6
:104A800071D004D80E2B2AD01E2B70D162E0A02B3F
:104A900004D0B02B41D05F2B69D108E0354B18789A
:104AA000354B1978354B1A78FFF726FF5FE0A023C6
:104AB000DB051968324A0A408021C9010A431A609D
:104AC0001968304A0A408021C9000A431A601968EF
:104AD0002D4A0A409021C9050A431A6047E02B4B32
:104AE00001221A702A4B192159860A219986191C0C
:104AF000413115200870191C3E310320087008212F
:104B00001977244B1A70244B4022191DCA77591D5E
:104B1000CA7706332D22DA7729E0164B1B78002B53
:104B200025D08023DB0599681C4A0A409A60996861
:104B30001B4A0A409A6099681A4A0A409A60596862
:104B4000802212010A435A60C046C046C046C04691
:104B500062B60CE0074B1A78134B002A01D00022F2
:104B600004E0012202E0034B1A78104B1A7008BDD2
:104B70001C0000200C0000500E0000500D000050E2
:104B8000FF0FFFFFFFF8FFFFFFFFFF801A04002069
:104B9000761000201C040020520C0020FFFDFFFFB7
:104BA000FFFBFFFFFFF7FFFF340000203300002072
:104BB000FFFFFFFFFFFFFFFFFFFFFFFFFFFFFFFF05
:104BC000FFFFFFFFFFFFFFFFFFFFFFFFFFFFFFFFF5
:104BD000FFFFFFFFFFFFFFFFFFFFFFFFFFFFFFFFE5
:104BE000FFFFFFFFFFFFFFFFFFFFFFFFFFFFFFFFD5
:104BF000FFFFFFFFFFFFFFFFFFFFFFFFFFFFFFFFC5
:104C0000FFFFFFFFFFFFFFFFFFFFFFFFFFFFFF545F
:104C10004D314830504234345945594B594C455F19
:104C200047314D0000480C3C1E14010101010005F4
:104C300000012003E001000000020232322B0100DB
:104C400070002C018403401F14000C02323210004B
:104C50000101040090012403051E00FD040F0F0054
:104C6000040A0700008014190AF60FF60A008803E8
:104C7000200398032C01DC0096003C002256000023
:104C80000000320014001E145A0100052D0001011D
:104C9000011C1E003E003E000A0101070700FFFF45
:104CA0000A03941128005203C800140000000400F5
:104CB00090012404051E00FD040F0F00040F0500E1
:104CC000008014190AF60FF60F00320014003200AB
:104CD00014000A00140030002256000000003C00BE
:104CE0001400140F5A0140062D00020101143E0069
:104CF0003E003E000A0101070A0078000A0A9411EA
:104D000028005203C80020000F01110213031204EF
:104D100010050A0E090D0814070C06150B000000FB
:104D2000000102030405060708090A0B0000141419
:104D30000209FDFEFDFDFBFDFBFDFBFCFAFCFAFCA0
:104D4000F9FCFAFCFBFDFA000000FDFDFDFCFCFB9C
:104D5000FCFBFCFBFBFAFAFAFAFAFAFAFBFBFA00A4
:104D60000000FDFDFDFCFCFBFCFCFCFCFAFAFAFA81
:104D7000F9FAFAFAFBFAF8000000FDFDFDFCFCFB75
:104D8000FCFBFCFBFBFBFAFAFAFAFAFAFBFBF80075
:104D90000000FDFDFDFCFCFBFCFBFCFBFBFBFAFA51
:104DA000FAFAFAFBFBFBF8000000FDFDFDFCFCFB42
:104DB000FCFBFCFBFBFBFAFAFAFAFAFBFBFBF80044
:104DC0000000FDFDFDFCFCFBFCFBFCFBFBFBFAFA21
:104DD000FAFAFAFAFBFBF8000000FDFDFDFCFCFB13
:104DE000FCFBFCFBFBFBFAFAFAFAFAFBFBFBF80014
:104DF0000000FDFDFDFCFCFBFCFBFCFBFBFBFAFAF1
:104E0000FAFAFAFBFBFBF8000000FDFDFDFCFCFBE1
:104E1000FCFBFCFBFAFAFAFAF9FAFAFAFAFAF800E9
:104E20000000FDFDFDFCFCFBFCFBFBFBFAFBFAFAC2
:104E3000FAFAFAFBFBFBF8000000FEFDFDFCFDFBAF
:104E4000FDFBFDFBFCFAFCFAFBF9FCFAFDFBF800AC
:104E50000000000000000000000000000000000052
:104E60000000000000000000000000000000000042
:104E70000000000000000000000000000000000032
:104E800000004A403C3F4141433B3D3D3A373A3BBD
:104E9000393B3F4345000000342A24211E21211DB7
:104EA0001B211E1F2222252324252A0000002E2B31
:104EB00022222123201F1D221F2424262A24272BBF
:104EC0002E000000312B24212021201E1D211F2314
:104ED0002621242726292F000000332B25222020DD
:104EE0001F1E1F20202025232526272830000000F4
:104EF000342B23201E201F201E222022272425277A
:104F0000262C31000000342A25222021201F1D1FBD
:104F10001E222322242725252E000000342B2420A6
:104F20001F1E1D1E1D201F222524232526282F007D
:104F30000000332A1F21201F1F1E1C221F2125268F
:104F400022272628310000002D2721201F1E202186
:104F50001D231F212424262426272D0000002C2970
:104F6000221F1E1E1E211D221C1F212121211F2246
:104F700028000000454435363D38383A3538383455
:104F80003A3C3A39414155000000232370B5114B9A
:104F9000114A1C6811688C4218D01B6816680F4AA9
:104FA000DBB21568F6B206240F210130221C5A43E9
:104FB000AA1812780A40824209D05A1CD2B21D3B6C
:104FC000DBB21D2A00D8131CB342EFD1044B18B238
:104FD00070BDC04674000020700000202C0000202E
:104FE000FFFF000000B5074A074B106819688842A8
:104FF00002DB10681B6802E010681B681E30C01AD4
:1050000000BDC0467000002074000020FFFFFF00BC
:00000001FF
